:100000000C9450000C9465000C9465000C946500F1
:100010000C9465000C9465000C9465000C946500CC
:100020000C9465000C9465000C9465000C946500BC
:100030000C9465000C9465000C9465000C946500AC
:100040000C9465000C9465000C9465000C9465009C
:100050000C9465000C9465000C9465000C9465008C
:100060000C9465000C9465000C9465000C9465007C
:100070000C9465000C9465000C9465000C9465006C
:100080000C9465000C9465000C9465000C9465005C
:100090000C9465000C9465000C9465000C9465004C
:1000A00011241FBECFEFCDBFDFE3DEBF18E2A0E01B
:1000B000B8E2E5E4F4E102C005900D92AE30B1077C
:1000C000D9F70E94DC030C940B0A0C940000EF9209
:1000D000FF920F931F93CF93DF93CDB7DEB72CA181
:1000E000211509F448C0AE01475F5F4F942F852F5B
:1000F0008E01045F1F4FD80130E07901EE0CFF1C28
:10010000E20EF31EE40EF51E21E0F894E92FF82F1D
:10011000619170E087E090E00BC054E05A95F1F7F0
:1001200000002093660432E03A95F1F70197A8F0B9
:10013000AB01082E02C0559547950A94E2F720932B
:10014000650440FDEACF00C000C02093660444E08F
:100150004A95F1F700C0019758F7EA17FB07C1F677
:100160007894DF011396902F812F0E151F0519F03B
:100170000D5F1F4FCACF89EF90E00197F1F700C0E4
:100180000000DF91CF911F910F91FF90EF900895A4
:100190000F931F93FC012130310591F0822F880FBE
:1001A000820F080F10E0C801880F991F800F911F60
:1001B000E80FF91F5083418362831F910F910895C7
:1001C00085E0801B082FEECF2F923F924F925F92D7
:1001D0006F927F928F929F92AF92BF92CF92DF9257
:1001E000EF92FF920F931F93CF93DF93CDB7DEB7BC
:1001F000A397CDBFDEBF3C014E8F5F8F462E2FE70A
:1002000039EB4AE2215030404040E1F700C00000A5
:1002100088A399A34C018BE1880E911CF3011082F5
:10022000118212823396E815F905C9F78BE1F301C3
:10023000DE01119601900D928A95E1F7DE0111968B
:100240009E012C5F3F4F2C8F3D8FB9015E013CE139
:10025000A30EB11C55245394F894FD01419150E034
:1002600087E090E00BC024E02A95F1F7000050925F
:10027000660432E03A95F1F70197A8F09A01082E4A
:1002800002C0359527950A94E2F75092650420FD47
:10029000EACF00C000C05092660424E02A95F1F72E
:1002A00000C0019758F7E617F707C1F67894BF0129
:1002B0006D5F7F4F1396AA15BB0571F689EF90E02D
:1002C0000197F1F700C000009FEFE4E3FCE09150DC
:1002D000E040F040E1F700C0000013012C8D2AA39C
:1002E0003D8D3BA3552453942F8DF10120833E8DEA
:1002F000318342828BE1F301DE01119601900D9270
:100300008A95E1F7BE016F5F7F4FCAA0DBA0F8942A
:10031000FB01419150E087E090E00BC024E02A957A
:10032000F1F700005092660432E03A95F1F7019738
:10033000A8F09A01082E02C0359527950A94E2F795
:100340005092650420FDEACF00C000C050926604C0
:1003500024E02A95F1F700C0019758F7EC15FD0548
:10036000C1F6789433966F016D5F7F4F6A157B05F8
:1003700071F689EF90E00197F1F700C000009FEF60
:10038000E4E3FCE09150E040F040E1F700C0000001
:1003900023E0220E311C2814390409F0A5CF83E094
:1003A000282E312CDC8C3D8D21E0CE8C5F8C4FEFE4
:1003B00089E698E1415080409040E1F700C000009C
:1003C000F3011082118212823396E815F905C9F7FC
:1003D0008BE1F301DE01119601900D928A95E1F710
:1003E000DE0111960D2D132FF894FD01619170E03F
:1003F00087E090E00BC044E04A95F1F700002093BD
:10040000660442E04A95F1F70197A8F0AB01082E87
:1004100002C0559547950A94E2F72093650440FD84
:10042000EACF00C000C02093660444E04A95F1F78B
:1004300000C0019758F7E017F107C1F678940D5FF7
:100440001F4F1396AA15BB0579F689EF90E0019727
:10045000F1F700C000009FEFE9E6F8E19150E040BD
:10046000F040E1F700C00000F3015082C1824282F7
:100470003396E815F905C9F78BE1F301DE01119612
:1004800001900D928A95E1F7DE011196ED2CF32E85
:10049000F894FD01619170E087E090E00BC044E0CA
:1004A0004A95F1F700002093660442E04A95F1F77F
:1004B0000197A8F0AB01082E02C0559547950A9404
:1004C000E2F72093650440FDEACF00C000C020930E
:1004D000660444E04A95F1F700C0019758F7EE151D
:1004E000FF05C1F6789433967F011396AA15BB05D4
:1004F00079F6E9EFF0E03197F1F700C00000F1E0A4
:100500002F1A310809F053CF2AE230E54EEF80E090
:100510002150304040408040D9F70000E8A1F9A1C7
:100520001082118212823396E815F905C9F78BE122
:10053000F301DE01119601900D928A95E1F78E018B
:100540000F5F1F4FDE01149621E0F894F8016191CE
:1005500070E087E090E00BC034E03A95F1F70000DE
:100560002093660442E04A95F1F70197A8F0AB01A9
:10057000082E02C0559547950A94E2F7209365042A
:1005800040FDEACF00C000C02093660434E03A95F5
:10059000F1F700C0019758F7EA17FB07C1F6789406
:1005A000DF0113960D5F1F4FA016B10671F689EF9C
:1005B00090E00197F1F700C00000A396CDBFDEBF29
:1005C000DF91CF911F910F91FF90EF90DF90CF902F
:1005D000BF90AF909F908F907F906F905F904F9063
:1005E0003F902F900895362FE82F252F872F90E0EA
:1005F000642F752F0E942409F62F8E2F90E0642F10
:10060000722F0E942409E62F832F90E0642F722F0F
:100610000E9424097F2F8E2F0895982F621711F0C2
:1006200080E008957313FCCF81E09417D1F380E04C
:100630000895CF93DF93CDB7DEB76B97CDBFDEBF05
:100640003C019C01255E3F4F6901CE010496FE01ED
:100650007C965F0188248A94582E492E992493947D
:100660007301F3018182108212823396EC15FD052D
:10067000C9F78BE1F301DE01119601900D928A9585
:10068000E1F7DE011196052D142DF894FD0141913D
:1006900050E087E090E00BC024E02A95F1F70000DD
:1006A0009092660432E03A95F1F70197A8F09A012A
:1006B000082E02C0359527950A94E2F790926504BA
:1006C00020FDEACF00C000C09092660424E02A9585
:1006D000F1F700C0019758F7E017F107C1F67894D9
:1006E0000D5F1F4F1396AA15BB0579F689EF90E0B1
:1006F0000197F1F700C000009FEFE9E6F8E19150A3
:10070000E040F040E1F700C00000F70110821182E4
:100710001282F3E0EF0EF11CEC14FD04B1F78BE153
:10072000F301DE01119601900D928A95E1F7DE0149
:100730001196652D742DF894FD01419150E087E0EC
:1007400090E00BC024E02A95F1F700009092660437
:1007500032E03A95F1F70197A8F09A01082E02C00D
:10076000359527950A94E2F79092650420FDEACF2B
:1007700000C000C09092660424E02A95F1F700C002
:10078000019758F7E617F707C1F678946D5F7F4F2A
:100790001396AA15BB0579F689EF90E00197F1F75A
:1007A00000C000009FEFE9E6F8E19150E040F04022
:1007B000E1F700C0000054CFCDB7DEB7EA97CDBF58
:1007C000DEBFF89488ED84BF1092610078940E9497
:1007D000BE0599E04E012CE1820E911CF401292FF7
:1007E00011922A95E9F71DA61EA61FA618AA2FEF9B
:1007F00030E02BA73CA71FA218A619A61AA62DA366
:100800003EA31AAE19AE18AE1FAA8FEF80936004F4
:100810008EAB8DAB8BE1FE0131965F01282F1192DB
:100820002A95E9F79F93EDB7FEB77B97EDBFFEBF23
:10083000ADB7BEB71196F50101900D928A95E1F71B
:100840000E94670020E03FEF48E06FEF70E087EF25
:100850000E940D03CDBFDEBF81110BC02FEF30E032
:1008600040E06FEF70E087EF0E940D03811509F4FF
:1008700030C1C5010E94190349E0742E66246394B7
:100880008AAD833009F4CEC0BE01685C7F4FCE01D3
:10089000C7960E94C9058115B9F38FA990E028ADCC
:1008A000FC01EE0FFF1FE80FF91FEA0DFB1DE20F21
:1008B000F11D838D8111E4CF9501AE01465C5F4F40
:1008C000BE01655D7F4FC4010E9425068AADFE0111
:1008D000BB96E80FF11DE80FF11D32972FA9208379
:1008E00088AD818330E0082F10E0F901EE0FFF1F83
:1008F000E20FF31FEA0DFB1DE80FF11D638E4FEFB2
:1009000050E067EFC5010E94C8007F922DB73EB747
:100910002B5131092DBF3EBFADB7BEB711968BE14C
:10092000F50101900D928A95E1F70E946700CE01D2
:10093000C5966C01FE01F6967F018E01075C1F4F84
:100940009E01265C3F4F41E050E0B501C4010E948A
:10095000B108FFE724E83EE1F15020403040E1F7E4
:1009600000C00000CDBFDEBF89AD833009F47FC079
:100970009501AE01475C5F4FBE016B5D7F4FC401C7
:100980000E942506EAACF12C0DA910E02EA930E05A
:10099000FE01BB966F01AE014F5C5F4FBE016D5C07
:1009A0007F4FC4010E945B062BA93CA989ADFE01C3
:1009B000B596E80FF11DE80FF11D3297208309A9C4
:1009C0001AA9018340E05FEF68E0C5010E94C800FA
:1009D0007F922DB73EB72B5131092DBF3EBFADB72A
:1009E000BEB711968BE1F50101900D928A95E1F762
:1009F0000E946700CE01C5966C01FE01F6967F014C
:100A00008E01075C1F4F9E01265C3F4F42E050E085
:100A1000B501C4010E94B108CDBFDEBF8AAD8330ED
:100A200009F032CF0CA510E0EBA4F12C40E150E02E
:100A30006FEF70E087EF0E94F302AB01682F970120
:100A4000C5010E94C8007F928DB79EB74B978DBF9E
:100A50009EBFADB7BEB711968BE1F50101900D9227
:100A60008A95E1F70E946700CDBFDEBF0DCF1DA1C3
:100A70001EAB0EA10DAB40E150E060E07FEF88E0DF
:100A80000E94F302AB01682FE02FF0E0212F30E04D
:100A90008F01C5010E94C8007F92EDB7FEB77B971A
:100AA000EDBFFEBFADB7BEB711968BE1F50101906A
:100AB0000D928A95E1F70E946700FFEF28E03DE381
:100AC000F15020403040E1F700C00000CDBFDEBF54
:100AD0004FCF2FEF30E040E060E07FEF88E00E94F2
:100AE0000D038111C6CEC8CECF93DF93EC01AB01CD
:100AF000DC019C01275F3F4FFC01808191818917B8
:100B0000D9F03396E217F307C1F79E012D5F3F4FEF
:100B10008D9112969C9112978917B1F0A217B30785
:100B2000B9F788819C81891709F18E819817B1F0F6
:100B300080E0DF91CF91089592818913E2CF8417ED
:100B40001506F9F681E0F5CF15969C911597891356
:100B5000E5CF8417150611F781E0EBCF8A81981352
:100B6000E7CF81E09417150619F7E3CF28858213A4
:100B7000DCCF84171506C9F681E0DBCF8FEF8093B9
:100B8000A004E0E4F4E0108288E0808B818B828B0B
:100B90000895AF92BF92DF92EF92FF920F931F934F
:100BA000CF93DF93EC015B0102E414E564E078E2AB
:100BB000F12CE12CDD24DA94D8019D918D019093E4
:100BC000A604E7EAF1E63197F1F700C00000FB0167
:100BD00040E050E02091480430E0042E02C03595FA
:100BE00027950A94E2F721703327C901A1E08A27EB
:100BF0008170232B41F49081911105C0F882D501B9
:100C00004C93EE24E39481934F5F5F4F4330510543
:100C100009F7D092A404BFE7E8E3F1E0B150E04067
:100C2000F040E1F700C00000F3946D5F7F4F23E0D8
:100C3000F212C2CF8E2DDF91CF911F910F91FF90B5
:100C4000EF90DF90BF90AF9008950F931F93CF93D5
:100C5000DF93DC01EB01FA01C9014081433039F037
:100C60004F5F4083DF91CF911F910F9108952881AD
:100C700030E0A901440F551F240F351FFD01E20F7D
:100C8000F31F2981E20FF11D1082098110E02881F4
:100C900030E040E050E060E00E94C8002B819C8181
:100CA0008D813A81388329839A838B83DF91CF9119
:100CB0001F910F9108952F923F924F925F926F92E2
:100CC0007F928F929F92AF92BF92CF92DF92EF92DC
:100CD000FF920F931F93CF93DF93CDB7DEB7E097CB
:100CE000CDBFDEBF4C016DA77EA74FA758AB590102
:100CF0001801EBA6FCA6C9A6DAA62C013C01C12C62
:100D0000D12C8301E12CF12C4FEFA416B40609F489
:100D10004DC1AC14BD0489F0D8018C91811509F442
:100D200049C1BFEFEB1AFB0AE3E0EE16F10489F0CC
:100D30000F5F1F4FAC14BD0479F72E143F0461F709
:100D4000C10101967C010F5F1F4F92E0291631040B
:100D500001F7FFEFCF1ADF0A43E0640E711C83E056
:100D6000C816D10471F6C12CD12C77247394662453
:100D700063948201E12CF12C9FEFA916B90609F4C6
:100D800030C1AC14BD0481F0D8018C918115A1F063
:100D9000BFEFEB1AFB0AE3E0EE16F10431F10F5F4F
:100DA0001F4FAC14BD0481F72E143F0409F4AAC1EF
:100DB000F801808181114CC1F80170828BA59CA53E
:100DC000039709F419C161E070E0C4010E94740541
:100DD0008111A3C1D8011C92BFEFEB1AFB0A0F5F70
:100DE0001F4FE3E0EE16F10439F6FFEFCF1ADF0AEA
:100DF00043E0440E511C83E0C816D10409F0B9CF7A
:100E000091E0A916B10409F42CC1F4018481811583
:100E100009F430C188E0EAE1F4E5DE019196019041
:100E20000D928A95E1F78E010F5D1F4F6E01B9E2B9
:100E3000CB0ED11C380176010E949809F70152911E
:100E400042917F019C012370307897FF06C02150AA
:100E500031092C6F3F6F2F5F3F4F220F331FF80177
:100E6000E20FF31F80819181D7018D939C93408382
:100E700051830E151F0501F780E1E2E2F4E5DE0182
:100E8000519601900D928A95E1F7F80138967F010D
:100E9000D801ED91FD91EE0FFF1FEE0FFF1FCE0168
:100EA0000196E80FF91F8089918922893389EFEF34
:100EB000AE16BE0621F0A816B90609F4EAC0FC0178
:100EC000EE0FFF1FE80FF91FE80DF91DE20FF31FEA
:100ED0004081411509F42FC1EA16FB06D1F60E94A4
:100EE0009809D6015E914E916D019C012370307876
:100EF00097FF06C0215031092C6F3F6F2F5F3F4F86
:100F0000220F331FF801E20FF31F80819181D60178
:100F10008D939C93408351830C151D0501F780E14F
:100F2000E2E3F4E5DE01119601900D928A95E1F776
:100F3000D301ED91FD913D01EE0FFF1FEE0FFF1F5D
:100F4000CE010196E80FF91F8081918122813381C2
:100F5000AFEFAA16BA0621F0A816B90609F4B0C078
:100F6000FC01EE0FFF1FE80FF91FE80DF91DE20F5E
:100F7000F31F4081411509F4E9C0E614F704C1F6F6
:100F8000E096CDBFDEBFDF91CF911F910F91FF9013
:100F9000EF90DF90CF90BF90AF909F908F907F9019
:100FA0006F905F904F903F902F900895D8018C9153
:100FB00081110CC042E0F801408362E070E0C4019E
:100FC0000E947405811195C0D8011C92BFEFEB1AE5
:100FD000FB0A0F5F1F4FE3E0EE16F10409F094CE19
:100FE000B8CED8018C918111F7CEF80170828BA513
:100FF0009CA5039709F0E7CEE9A5FAA5808190E0CA
:10100000FC01EE0FFF1FE80FF91FE80DF91DA9A560
:10101000BAA511968C91E80FF11D108261E070E085
:10102000C4010E947405811178C0F8011082A9A53D
:10103000BAA58C9190E0FC01EE0FFF1FE80FF91F9D
:10104000E80DF91D11968C91E80FF11D6082C4CE58
:10105000FFEFEF1AFF0A43E0E416F10409F09FCE18
:10106000C4CEA1E02A16310409F4D4CEF40184815F
:101070008111D0CE81E090E0ADA5BEA58D939C936B
:10108000EFA5F8A98083918382E0D40114968C9314
:1010900077CF2216330609F012CFEA16FB0609F4C1
:1010A0001ECFED91FD91EE0FFF1FEE0FFF1FCE0142
:1010B0000196E80FF91F8089918922893389FBCE37
:1010C0002216330609F04CCFE614F70409F458CF82
:1010D000D301ED91FD913D01EE0FFF1FEE0FFF1FBC
:1010E000CE010196E80FF91F808191812281338121
:1010F00033CFADA5BEA5CD92DC92EFA5F8A9E082D5
:10110000F1823ECFD10111967D010F5F1F4FB2E0FA
:101110002B16310409F035CE68CEF201EE0DFF1D1D
:1011200082E08083EDA5FEA5C082D182AFA5B8A9DB
:10113000ED92FC9225CF42E04083ADA5BEA58D93F4
:101140009C93EFA5F8A9208331831ACF42E0408316
:10115000EDA5FEA580839183AFA5B8A92D933C93FF
:101160000FCF2F923F924F925F926F927F928F920A
:101170009F92AF92BF92CF92DF92EF92FF920F9326
:101180001F93CF93DF9300D000D0CDB7DEB78B8312
:101190009C8369837A835A0139014801270116012A
:1011A000BA018B819C810E947405811143C0EB813F
:1011B000FC819F01275F3F4F8081811529F181814B
:1011C000811511F182818115F9F03396E217F30749
:1011D00099F74FEF50E060E089819A810E94E40026
:1011E000EB81FC811082118212821382148215829B
:1011F000168217821086F3011082F40110828FEF9D
:10120000F2018083F10180832496CDBFDEBFDF91A0
:10121000CF911F910F91FF90EF90DF90CF90BF90F3
:10122000AF909F908F907F906F905F904F903F9086
:101230002F90089540E05FEF68E0AA94AB2861F634
:101240004FEF50E067EFC8CF97FB072E16F40094DE
:1012500007D077FD09D00E94380907FC05D03EF47D
:10126000909581959F4F0895709561957F4F089552
:10127000AA1BBB1B51E107C0AA1FBB1FA617B707BC
:1012800010F0A61BB70B881F991F5A95A9F78095D8
:101290009095BC01CD0108958F929F92AF92BF921D
:1012A000CF92DF92EF92FF92CF93DF93EC016881B0
:1012B00079818A819B81611571058105910521F4F0
:1012C00064E279ED8BE597E02DE133EF41E050E00A
:1012D0000E94A80949015A019B01AC01A7EAB1E4A7
:1012E0000E94C7096B017C01ACEEB4EFA50194012B
:1012F0000E94D509DC01CB018C0D9D1DAE1DBF1DCB
:10130000B7FF03C00197A109B04888839983AA83D6
:10131000BB839F77DF91CF91FF90EF90DF90CF90CD
:10132000BF90AF909F908F9008950E944C090895B0
:1013300080E098E20E944C090895A0E0B0E080931C
:10134000002890930128A0930228B09303280895C1
:10135000052E97FB1EF400940E94BF0957FD07D08D
:101360000E94DA0907FC03D04EF40C94BF09509593
:101370004095309521953F4F4F4F5F4F0895909581
:101380008095709561957F4F8F4F9F4F08950E9474
:10139000FC09A59F900DB49F900DA49F800D911DF9
:1013A00011240895B7FF0C94C7090E94C709821B36
:1013B000930B0895A1E21A2EAA1BBB1BFD010DC0C1
:1013C000AA1FBB1FEE1FFF1FA217B307E407F507F5
:1013D00020F0A21BB30BE40BF50B661F771F881FD1
:1013E000991F1A9469F760957095809590959B0167
:1013F000AC01BD01CF010895A29FB001B39FC00110
:10140000A39F700D811D1124911DB29F700D811D30
:0A1410001124911D0895F894FFCFF8
:10141A0000000100020003000000000000000200BA
:10142A0002000000020002000000010001000000AA
:0B143A0002000100010002000102049A
:0E144500010000000100000000000000000097
:00000001FF
